:020000040800F2
:10000000183D0020CD5800080D5600081156000874
:100010001356000815560008175600080000000087
:10002000000000000000000000000000CB550008A8
:100030001956000800000000855500082D550008DD
:1000400015590008195900081D59000821590008C0
:1000500025590008295900082D5900083159000870
:1000600035590008395900083D5900084159000820
:1000700045590008495900081B5600082156000838
:100080004D590008515900085559000859590008A0
:100090005D59000861590008655900086959000850
:1000A0006D59000827560008715900087559000855
:1000B000795900082D5600087D590008815900081B
:1000C00085590008895900088D5900089159000880
:1000D000955900089B5600083356000899590008A6
:1000E0009D590008A1590008A5590008A959000800
:1000F000AD590008B1590008B5590008B9590008B0
:10010000BD590008C1590008C5590008C95900085F
:10011000CD590008D1590008D5590008D95900080F
:10012000DD590008E1590008E5590008E9590008BF
:100130002DE9F14FB2B09946924600230691CDE9E0
:1001400000333C9A0F930DF14A0114914A7011E06B
:10015000329E57462C4617F8011B0698B0470028D8
:10016000069000F026810F98401C641E0F90F2D17B
:100170003296AA449AF80000252808D100210022CE
:1001800009910A920B910C920D910E920FE06A4622
:100190004FF0FF31504601F07FF8050002D10F9873
:1001A00000F066BED4D50125E3E741F001011AF85D
:1001B000010F2028F9D023280CD02B2804D02D287B
:1001C00005D0302809D00BE041F00201EFE741F003
:1001D0000401ECE741F00801E9E741F01001E6E72E
:1001E0002A280FD1D9F8002052F8040BC9F80020B2
:1001F0000028119003D54042119041F004010AF10A
:10020000010A14E01192DFF8EC3B0AE011989842E1
:1002100005DA00EB800402EB4402303A11920AF155
:10022000010A9AF80020A2F130000A28EED39AF8C9
:1002300000002E2803D04FF0FF32109229E01AF868
:10024000010F2A2809D1D9F8000050F8042BC9F869
:10025000000010920AF1010A1BE02D280CBF0AF1E0
:10026000010A002000221092DFF8882B0BE040B931
:10027000109B934205DA03EB830504EB4504303C05
:1002800010940AF1010A9AF80040A4F130030A2BF5
:10029000EDD3ADF848100FF660309AF8001001F079
:1002A00005F808B11AF8010B8DF84A009DF84A00CC
:1002B000682805D19AF8000068280CD1622106E070
:1002C0006C2804BF9AF800006C2804D171218DF8C5
:1002D0004A100AF1010A1FA808901AF801BBBBF1E5
:1002E00025012DD01C3900F06181091F022940F23F
:1002F0005D810E392AD0491F00F0B384093900F01E
:100300005581891E00F04985491E00F0F584491E7B
:10031000022940F24B81091F00F0EE84491F00F0D2
:10032000BA80491E00F09D84491E65D0C91E21D0A7
:10033000891E00F09684C91E00F0938400F04CBD25
:1003400025238DF87C30012109912AE06C208DF85D
:100350004A00D9F8000050F8042BC9F80000002A20
:1003600043D11499487800283DD04FF0FF340FF660
:10037000902012E09DF84A006C28EAD0D9F80000DD
:1003800050F8044BC9F800000794D4B91499487880
:1003900098B14FF0FF340FF6842000F0A1FF201A2F
:1003A00007D132981FAA04A900F065FD00287FF547
:1003B000E1AE4FF0FF3000F05BBD0FF67C20079000
:1003C000EFE7109D002D04D5204600F0A9FF04465C
:1003D00007E02A46204600F0BFFF002814BF041B98
:1003E0002C460A94DDE70FF65422329804A900F057
:1003F000C8FD0028D5D5DCE7D9F8001051F8040B6A
:10040000C9F8001020F00004002121F0FF351FABD7
:10041000CDE904450793DDE9042308993C2413B989
:100420000AB9109898B102F00F053035641EEEB28B
:100430003A2EA8BF2735120942EA03721B090D554F
:1004400008BF002A03D007980D19A842EBD308195A
:100450000790C4F13C0210980A92824209DABDF872
:100460004810821A4FF6EF7001400C92ADF8481018
:1004700097E7002895D59DF8480000F01400102853
:100480008FD1119B09990C985B1A1B1A9A1A002A92
:1004900087DD0C9285E71499487820B14FF0FF343E
:1004A0000FF69C1079E79DF84A00622862D0682810
:1004B00019D06A2840D06C2806D071284DD07428F5
:1004C0002DD07A281ED064E0D9F8001051F8040B22
:1004D000C9F8001020B94FF0FF340FF67C105CE72C
:1004E0000F9901605DE7D9F8001051F8040BC9F8C5
:1004F000001020B94FF0FF340FF65C104DE70F9954
:1005000001804EE7D9F8001051F8040BC9F800102B
:100510000028E5D14FF0FF340FF63C103DE7D9F845
:10052000001051F8040BC9F800100028D8D14FF082
:10053000FF340FF6241030E7D9F8001051F8040BFF
:10054000C9F8001020B94FF0FF340FF60C1024E763
:100550000F9AD317C0E9002323E7D9F8001051F808
:10056000040BC9F800100028F2D14FF0FF340FF649
:10057000E80012E7D9F8001051F8040BC9F8001090
:1005800020B94FF0FF340FF6D00006E70F99017045
:1005900007E7D9F8001051F8040BC9F8001000283B
:1005A0009ED14FF0FF340FF6B000F6E6D9F80020E8
:1005B000D21D22F00702C9F80020D2E9000108325A
:1005C000C9F80020CDE90401C80F02D009982D21F7
:1005D0000AE0BDF84800810702D509982B2103E005
:1005E000C00705D5099820211FAA1154401C099065
:1005F000DDE9042309991FA8CDE92E2308444BF017
:1006000020016129079015AC0BD01099002902D563
:100610000621109105E001BF4BF02001672901225E
:100620001092DDE9042359004915491C10D11A0321
:100630000ED0ABF1610503211A2D0A9102D20FF6FB
:10064000A43101E00FF6A031032200F0B1FEA8E6CC
:1006500059004915491C0AD11A0308D1ABF16105AB
:1006600003211A2D0A9116D30FF68431ECE7DDE948
:100670000401CDE93001DDE9302323F00047B7F56F
:10068000801F22F000060DD20022002F08BF002E8E
:10069000029203D116E00FF65431D5E702AA00F01A
:1006A00093FE0FE0DFF8EC0ADFF8EC1A00EB1750CE
:1006B0000290DDE930234FF0FF301940DFF8DC7A9B
:1006C00010403943CDE904014BF0200061280DD1E1
:1006D000079830210170821CBBF1610F07920CBF9B
:1006E0007821582141700998801C0990DDE90401A6
:1006F00020F0000231F0004308BF002A02D100269A
:10070000002571E14BF02008B8F1610F40F0BE8088
:100710001098002847BF21210391401C0390039F9C
:10072000DDE92E017F1C00220023DDE9044500F0F5
:1007300083FE02998DF8542038BF85F00045091FCB
:10074000002F02910DF155065DDDDFF8541ACDE959
:10075000302140F2FF732E932046294600220023C9
:1007600000F082FE4FD24800400D00F11C0215D06F
:10077000002A13DD2E9B9A420ADBDDE9300121F0CD
:10078000004205F000400243DDE93001114611E06E
:100790006FF31E5141EA025120460BE024F00000A5
:1007A00035F0004108BF00280FBF29461C2229460A
:1007B00000F072FE04460D4600F00CFFFF1F002FF4
:1007C000804609DD00F024FF02460B4620462946FC
:1007D00000F030FF04460D46F01D0721B8F1000F70
:1007E0000CDD491E5EBF08F00F0200F8012D4FEA34
:1007F0002818F3D502E0002200F8012D491EFAD591
:10080000C61D002FA8DC0DF15500361A039886424C
:10081000D8BF304600280DF1550430D4B04206DA76
:100820000DF155010A5C082AA8BF0F2100DA00214A
:10083000024615AB134400E0401E13F80159521E46
:100840008D42F9D00F2904D10DF155018B5C5B1C51
:100850008B54002A04D50299091D15AC401C029145
:10086000411E0CD46218ABF13A0613783033DDB276
:100870003A2DA8BFF318491E02F80139F5D5109991
:10088000002940F1AF80421E1092ABE00299DFF8E0
:10089000142947F29750414391FBF2F2DDE92E45CE
:1008A000029225F00045D2F1070204DD20462946D8
:1008B00000F04CFC0BE052420020DFF8EC1800F096
:1008C00045FC02460B462046294600F025FF04461B
:1008D000B8F1660F109806BF029F0A3706273F1827
:1008E000142FC8BF142730208DF854000D46002067
:1008F000DFF8B818CDE92E010DF15506002F33DDD4
:100900002046294601F02CF801460A4606F1080364
:1009100004200A26B2FBF6F606EB860EA2EB4E0288
:10092000303203F8012C0A22B6FBF2F202EB820EFF
:10093000A6EB4E063036401E03F8026DE9D1083FA3
:10094000002F03F10806D9DD084601F01DF8024624
:100950000B462046294600F06DFEDDE92E2301F00E
:1009600021F804460D46CBE70DF15500361A0DF17E
:10097000550404E00298401E761E0290641C207804
:100980003028F7D0B8F1660F02D10299491C04E073
:10099000B8F1650F0CBF012100211098081886429C
:1009A000B8BF701E00281DD4B04204DA215C34297F
:1009B000C8BF392100DC30210246631E9D1800E0CB
:1009C000401E15F80169521E8E42F9D0392902D114
:1009D000A15C491CA154002A04D50299491C1C465B
:1009E000401C02910646029D00F05AFC406A0778BE
:1009F000DDF8408030B2002802DC01260FF2F474EA
:100A00004BF02000662808BF6D1C16D0672846D121
:100A100028B210F1040F48DB404546DA9DF8480043
:100A20006D1C010703D430B24045B8BF804628B2E0
:100A3000B8EB000848BF4FF000080FFA85FB079895
:100A40000A99BBF1000F00F3B2804A1C0A923023CE
:100A50004354B8F1000F03DC9DF84800010704D5AA
:100A60000A98411C0A9107990F5418EB0B0FB8BF55
:100A7000C8F100052DB268420D90A84432B29045ED
:100A8000B8BF4646079B0A9836B20B9632462146B7
:100A9000184400F08DFCA8EB06000E90CBE0BBF1F3
:100AA000610F17D14FF0700B19E030B2404504DAF6
:100AB0009DF848100A0758BF8046B8F1010848BFA2
:100AC0004FF00008BBF1670F14BF4FF0450B4FF01C
:100AD000650B04E0BBF1410F08BF4FF0500B0A98C3
:100AE000411C0A91B8F1000F079914F8012B0A5420
:100AF00003DC9DF8480001071AD50A98411C0A91A9
:100B0000B8F1000F07990F5412DD761E30B2804500
:100B100007980A9BB8BF464632B22146184400F0F7
:100B200047FC0A9936B271180A91A8EB06000D909D
:100B300007980A9908442AB2002A80F800B003D422
:100B40002B224270811C04E02D2141701546811C2E
:100B50006D4200202EAA0A2409E02B4693FBF4F5EF
:100B600005EB8506A3EB460302F8013B401C2DB2C2
:100B7000002DF2DC012806DC4BF02002652A04BFC0
:100B8000302201F8012B00282EAA08D1302001F8CC
:100B9000010B06E0401E135C303301F8013B0028D6
:100BA000F8DC079A0A981044091A0B9143E00844AC
:100BB00031B22AB2914219DA32B2214600F0F8FB82
:100BC0000A9936B27118ABEB0606B8F1000F0A911C
:100BD0000D9603DC9DF84800020704D5079847549A
:100BE0000B99491C0B91CDF8388024E0214600F088
:100BF000DFFB0A98761B5844B8F1000F0A9003DC1B
:100C00009DF848100A0703D5411C0A9107990F5413
:100C100030B2804507980A9BB8BF464632B204EB13
:100C20000B01184400F0C4FB0A9836B230180A9041
:100C3000A8EB06000D909DF8480000F01400102865
:100C40007FF4AFAB099A0A990D988A180B9982180C
:100C50000E988A18821811988242BFF6A2AB821AA7
:100C600017E49DF84A00622808D068280ED06A2848
:100C700014D06C281FD0712810D01CE0D9F80010B7
:100C800051F8040BC9F80010C0B21AE0D9F80010EE
:100C900051F8040BC9F8001080B212E0D9F8002016
:100CA000D21D22F00702C9F80020D2E90001083263
:100CB000C9F8002006E0D9F8001051F8040BC9F873
:100CC00000100021CDE904019DF8480001075AD524
:100CD000DDE90423002B08BF002A54D04BF020008C
:100CE000782850D109981FA930220A54401C431C6F
:100CF000099301F800B046E09DF84A00622808D048
:100D000068280ED06A2814D06C281FD0712810D003
:100D10001CE0D9F8001051F8040BC9F8001040B2DB
:100D20001AE0D9F8001051F8040BC9F8001000B20D
:100D300012E0D9F80020D21D22F00702C9F80020E5
:100D4000D2E900010832C9F8002006E0D9F8001005
:100D500051F8040BC9F80010C117CDE904010029AE
:100D600002D509982D210AE0BDF84800810702D577
:100D700009982B2103E0C00705D5099820211FAA57
:100D80001154401C09901FA809990144079104A817
:100D9000594600F056F9FFF704BB9DF84A006C284D
:100DA0000BD001210991D9F8000050F8041BC9F8B3
:100DB00000008DF87C10FFF7F4BAD9F8000050F865
:100DC000041BC9F8000015914FF0FF32109200216A
:100DD000169115AAFFF709BB25210122BBF1000FCF
:100DE0008DF87C1009923FF4DCAA8DF87DB00221C9
:100DF000FFF7AABACBCCCC0C686A6C747A4C0000B2
:100E00007072696E74665F733A2062616420256C4B
:100E10007320617267756D656E7400007072696E23
:100E200074665F733A206261642025732061726783
:100E3000756D656E74000000000000000000000089
:100E40007072696E74665F733A20256E20646973F0
:100E5000616C6C6F776564007072696E74663A20BD
:100E600062616420256E20617267756D656E740025
:100E700033B0BDE8F08F2DE9FC410F4606469046A1
:100E80007A6B7869396ABC6A121AB869521A796A37
:100E9000121AF869521A121A97F83800141B4107EF
:100EA0000FD42020002C8DF800000ADD25460123F8
:100EB0006A463946304600F07DF900285DD16D1E46
:100EC000F5D17B6942463946304600F073F9002877
:100ED00053D130208DF800003D6A002D09DD01233B
:100EE0006A463946304600F065F9002845D16D1E46
:100EF000F5D1BB69FA683946304600F05BF9002845
:100F00003BD130208DF800007D6A002D08DD0123E3
:100F10006A463946304600F04DF970BB6D1EF6D179
:100F2000F868B969FB6942183946304600F042F961
:100F300018BB30208DF80000BD6A002D08DD0123AC
:100F40006A463946304600F035F9B0B96D1EF6D123
:100F500097F8380041070DD52020002C8DF80000AF
:100F600008DD01236A463946304600F023F920B9EE
:100F7000641EF6D10020BDE8F6814FF0FF30BDE8D9
:100F8000F6812DE9F8470D46A3B02F6B002F82465E
:100F9000904648BF6FF0004700F0D5FD696B4018E0
:100FA00001AA0021C2E90011812828BF4FF0FF30BB
:100FB00044D289461EE0A74230DB686920188128A8
:100FC0000BD30021696303AA29465046FFF753FF5C
:100FD0005FEA000922D40020686103AB6E692246F3
:100FE0006946981900F0E4F9A6196E6158F8040BE7
:100FF000A0B13F1B002F11DDD8F8001001AA6846F0
:1010000000F04CF90446002C05D4D8F80000002864
:10101000D1D1641ECFD54FF0FF390EE0B9F1000FEA
:10102000504604D103AA2946FFF725FF8146B9F1AE
:10103000000F02D1002068616863484624B0BDE813
:10104000F0872DE9FC4307466F293E6908BF082455
:1010500005D041F02000782814BF0A2410243C2534
:10106000D7E90023642918BF69299046994605D11C
:10107000002B03D5D8F1000869EB4909B9F1000F3D
:1010800008BFB8F1000F0CD1386B50B9082C39D11A
:1010900097F83800010735D530203B2586F83B000E
:1010A00030E08DF80010404649462246E31700F034
:1010B0004FFD3032D0B26D1E3A28019504DB9DF809
:1010C0000000A0F151018A18725540464946224657
:1010D000E31700F03DFD80465FEA010908BFB8F163
:1010E000000F03D0F86871198842DCD3082C09D1AD
:1010F00097F83800010705D5705D302802D06D1EC5
:1011000030207055C5F13C02BA617119F960386B35
:10111000824208DA821A3A624FF6EF70398F014044
:101120003987BDE8F38300280ED597F8380000F022
:101130001400102808D17B6B7969386A5B1A1B1A76
:101140009A1A002AC8BF3A62BDE8F3832DE9D0435A
:1011500006460F4614464FF00008DFF8549012E0A0
:10116000E00707D542464B463046394600F01AFCA8
:1011700006460F464046494642464B4600F012FCA2
:10118000641080468946002CEAD130463946BDE8D5
:10119000D083000002FCFFFFFFFF0F800000E03F54
:1011A0000000F07FA08601000000F03F84D7974147
:1011B00000002440F8B505460E4617461C460020A0
:1011C0005CB117F8011BB068A847B06030B1F06A95
:1011D000401CF0620020641EF3D1F2BD4FF0FF30DE
:1011E000F2BD00006E616E004E414E00696E6600F9
:1011F000494E4600300030B4002513E050F8042B6F
:10120000D30744BFA9F101039A18091F042942F822
:10121000045BFAD213468C0744BF15809B1CC90798
:1012200048BF1D7050F8041B0029E7D130BC70473F
:101230001C48704770B45368D41801E05B1C491E09
:10124000042B08DA00291FBF057804F8015B10F8A9
:10125000016B002EF2D1536070BC704738B5144654
:101260001D4661B1FFF7E6FF61686A6B2046904753
:101270006FF00102811A02D0491E01D001E003E0A3
:1012800005E00021616032BD6FF0010032BD4FF01A
:10129000FF3032BDDA6B1047024BDFE7014BF9E755
:1012A000014870479C00002064000020C9B2027809
:1012B0008A421AB11CBF10F8012FF9E718BF0020AD
:1012C0007047B1F5807F02D34FF0FF307047017057
:1012D000012070470078401E8041C043C00F704716
:1012E00080B500B906A005490B681BB12222002178
:1012F000984701E000F044FD222002BD08250020AF
:10130000636F6E73747261696E742068616E646C71
:1013100065723A20626164206D6573736167650070
:1013200000F10103810704D010F8011B820781B18D
:10133000FAD10268A2F10131914311F0803104BF6A
:1013400050F8042FF6E709BAB1FA81F100EBD100A9
:10135000401CC01A70472E00C9B2830706D0521E27
:1013600022D310F8013B9942F7D11FE0083A13D37A
:1013700002F1040241EA012141EA014150F8043B33
:10138000121F21BF4B40A3F1013C2CEA030C1CF0BF
:10139000803FF3D0C9B2001F083210F8013B521E43
:1013A00028BF91EA030FF8D818BF0120401E7047EC
:1013B0004AB1000011F8013B521E00F8013B1CBF6E
:1013C00011F8013BF8E7704710B5144600F002F839
:1013D000226010BDC1F30A5343B14A0012F5001F49
:1013E00028D2A3F2FE32A1EB0251704750EA410C21
:1013F00020D001F0004C31EA0C01B1FA81F204BFB7
:10140000B0FA80F3D2180B3AB2F120032CBF00FAE5
:1014100003F1914041EA0C013EBFC2F1200C20FAD9
:101420000CF319439040524240F2FD33D21A01EBC3
:1014300003517047002270474FF4001C1CEB410F12
:1014400094BF1CEB430F09E041EA030C50EA4C0C3B
:1014500052EA0C0C03D2994208BF9042704714BF65
:101460008B428242704743004FF4001C1CEB410F3B
:1014700094BF1CEB430F09E041EA030C50EA4C0C0B
:1014800052EA0C0C03D28B4208BF8242704714BF51
:101490009942904270470000124254D440F2FF7CBF
:1014A0001CEA11530FD0634531D09B1863453CBFF4
:1014B00001EB0251704701F0004141EA0C5100205C
:1014C000AFF30080704750EA410320D001F0004C98
:1014D00091EA0C011CD0B1FA81F30B3B9A420DD971
:1014E000D21A994051EA0C01C3F1200C20FA0CFCED
:1014F00061449840531C40F2FF7CD7E7914041EA99
:101500000C01C2F1200C20FA0CF3194390407047F3
:10151000B0FA80F31533202BE0D3202AEED3203A03
:10152000203B9A4209D9D21A00FA03F141EA0C0190
:101530000020531C40F2FF7CB8E700FA02F141EAB8
:101540000C0100207047524240F2FF7C1CEA11530C
:101550000DD06345DBD0B2EB030C3CBFA1EB0251D5
:1015600070470CF1010221EA035141F4801150EA65
:10157000410CCCD001F0004C352A27DC30B481EA94
:101580000C01B2F1200309DAC2F12003044601FA8A
:1015900003F5D0402843D1409C400CE0C3F1200229
:1015A000450020FA03F418BF44F0010421FA03F0C7
:1015B00091400C43002174F1004550F1000051EBC3
:1015C0000C01244230BC7FF47BAF704761460020A1
:1015D00076E70000C1F30A5340F2FE329B1A14DD95
:1015E000D3F120034FEAE17208DDC90241EA50510C
:1015F00041F00040D84080185040704703F2E1307D
:1016000010B1D24382F000407047002070470000C4
:10161000C11768B14840401AB0FA80F29040D21C1D
:10162000C907C2F5846241EA025202EBD0214005AB
:101630007047000070B44FF0004591EA030F40F18D
:10164000AB836B40841A71EB030603D2001BB141DC
:10165000121973414FF4001C1CEB410F34BF7CEB9B
:10166000430442E00C0DA4EB1356352E4FDC45EA43
:10167000C323DB0A45EAC121C912B6F120050DDDFD
:1016800063FA05F6EB4086EA0305124218BF45F0FF
:101690000105C01851F100010CD213E062FA06F501
:1016A000F2405540F3415A40B340F3405A4080184D
:1016B000594107D349085FEA30005FEA350528BF82
:1016C00045F0010501F58011420875F1004250F125
:1016D000000041EB04514E0016F5001F70BC38BFEE
:1016E00070470020090D090570471CEB410F10D20F
:1016F00052EA43060BD0BCEB410F05D80C0DAB43AF
:10170000661E342EB6DD02E0AB438018594170BC32
:10171000704770BC70470000F0B540F2FF7581EA79
:10172000030C0CF0004C15EA11541DBF15EA1357B9
:10173000AC42AF42E5E0BC41C1F31301C3F3130374
:10174000801A994143F4801304D2641E4000494139
:1017500080185941C90241EA5051B1FBF3F603FB2D
:101760001611A2FB0675D7EBC020A94102D2761E46
:1017700080185941C90241EA5051B1FBF3FE03FB05
:101780001E11A2FB0E75D7EBC020A94103D2AEF10A
:10179000010E80185941890241EA9051760546EAC6
:1017A0008E2EB1FBF3F603FB1611A2FB0675D7EBE9
:1017B0008020A94102D2761E80185941C90241EA0F
:1017C00050514EEA060EB1FBF3F603FB1611A2FBD5
:1017D0000675D7EBC020A94102D2761E8018594168
:1017E000C90241EA5051B1FBF3F703FB1711A2FB09
:1017F0000735D3EBC020A94167F100070CBF0042B9
:1018000047F0010766F3D5274FEA1E31B80814F5F3
:10181000806412DDBD0775F1004250EB0E5051EBB4
:10182000045111F5801F5CBF41EA0C01F0BD4CF082
:101830007F6141F0E0410020F0BDBD076D0840EA46
:101840000E5041F48011D4F10104B4F120060ADAFB
:10185000C4F120060200E04001FA06F3E14018431B
:10186000B24015430EE0342C13DCC6F1200445EAE7
:1018700040056D0820FA06F2154321FA06F0A14052
:101880000D43002175F1004250F1000051EB0C01B5
:10189000F0BD00205FEA0C01F0BDCFB992185B41AA
:1018A000B3FA83F704BFB2FA82F6BF190B3FB7F160
:1018B00020062FBF02FA06F3BB40C7F1200622FA2A
:1018C00006F638BF3343BA401CB1E419641E33E74F
:1018D0007F4231F00041B1FA81F404BFB0FA80F6E2
:1018E000A4190B3CB4F120062FBF00FA06F1A14069
:1018F000C4F1200620FA06F638BF3143A0403C1B55
:101900001AE7AC421ABF05EA1357AF4212E050EA99
:1019100041061CBF52EA4306BFE750EA4107304682
:1019200061461CBF41EA0551F0BD52EA430C08BFB5
:10193000C143F0BD00204FF4001616EB410F98BFD5
:1019400016EB430F08BF16EB410F24BFC14305E060
:1019500016EB430F0CBF61464CEA0551F0BD000089
:10196000400D491840EA81200CD2490DA1F5806153
:10197000491C40F0004005DBD1F11F0154BFC840B5
:10198000C017704700207047014648B1B0FA80F197
:101990008840C91CC1F58461090501EBD0214005CF
:1019A00070470000B0B581EA030C0CF0004C40F227
:1019B000FF7515EA11541DBF15EA1357AC42AF422B
:1019C00039E0E41923EA455343F48013C90241F096
:1019D000004141EA505EC7021100A7FB0202002845
:1019E0004FF00000EEFB01204FF00001E3FB072168
:1019F00018BF42F00102401800214941E3FB0E01EB
:101A0000A4F580640F0302D252004041494154F1D1
:101A100001046CDD470872F1004250F1000051EB07
:101A20000451A1F580115CBF41EA0C01B0BD4CEA44
:101A300005510020B0BD05EA1357AC4214BFAF42B8
:101A400041E050EA410E1CBF52EA430E02E06146FB
:101A50000020B0BD24423C441BD15FEA070EF6D003
:101A6000090302BF01460020AEF1140EB1FA81F75E
:101A7000AEEB070401FA07FE0C37C7F1200100FAAC
:101A800007F7C8404EEA000E23EA455343F480139B
:101A9000A2E733F00043B3FA83F704BFB2FA82FE41
:101AA00077440B3FE41BB7F1200E2FBF02FA0EF371
:101AB000BB40C7F1200E22FA0EFE38BF43EA0E03E8
:101AC000BA40641C82E750EA410E14BF52EA430E4A
:101AD0006FF000014FF4001717EB430F8ABF194650
:101AE00017EB410FB5E74CEA05510020B0BDD4F12A
:101AF0000104B4F120070FDAC4F12007520828BF0F
:101B000042F0010210FA07F501FA07F7E1BF2A4394
:101B1000E0403843E1400FE0352C98DCC7F1200469
:101B200052EA400220FA07F218BF42F0010231FAED
:101B300007F0A1400A43002172F1004250F1000079
:101B400051EB0C01B0BD80B5FFF772FB006C02BD1C
:101B5000BBBBE1B1B2F5803F80F07E80022A1ED986
:101B60008C46B1FBF2F102FB11C31B0443EA1043A4
:101B7000B3FBF2FC02FB1C3380B240EA0343B3FB2D
:101B8000F2F002FB103240EA0C4000237047022AB8
:101B900005D98446B0FBF2F002FB10C270474AB18F
:101BA00005D100F0010249085FEA300070470022C9
:101BB0000023704700F0A6B90B00020000210020AE
:101BC0007047904271EB030CF6D3B3F5803F2FD2F0
:101BD000F0B5B3FA83F7B1FA81F4A7F10F0E3D1B0C
:101BE0005340CEF1200602FA0EF2F3415340B5F114
:101BF0000F0746D80F3C2C444140C4F12006A040BA
:101C0000F1414140B1FBF3F603FB1611A2FB06457F
:101C1000001BA94102D2761E8018594180EA0102B8
:101C200021FA0EF362FA0EF200215A403046F0BD5E
:101C300030B4B1FBF3FC03FB1C11A2FB0C45001BF1
:101C4000A94103D2ACF1010C8018594130BC0246C5
:101C50000B46604600217047B2F1807F65D3F0B536
:101C6000B2FA82F7B1FA81F4C7F10F063D1B22FAEE
:101C700006F307F1110EF24120355A40B5F10F0776
:101C8000B8D94140C4F12006A040F1414140B1FB28
:101C9000F3FC03FB1C11A2FB0C45001BA94103D262
:101CA000BCF1010C801859410F2F12D30F3FC9030B
:101CB00041EA5041B1FBF3F603FB1611A2FB0645C6
:101CC000D4EBC030A94102D2761E8018594146EAB1
:101CD000CC3C07B34140C7F12006B840F141414038
:101CE000B1FBF3F603FB1611A2FB0645001BA9414D
:101CF00002D2761E8018594180EA010221FA0EF3C1
:101D0000C7F1200462FA0EF20CFA07F05A402CFADE
:101D100004F13043F0BD80EA010221FA0EF3002104
:101D200062FA0EF260465A40F0BD8C46B1FBF2F109
:101D300002FB11C31B0243EA1063B3FBF2FC02FB7C
:101D40001C331B024CEA002043EA1063B3FBF2FC95
:101D500002FB1C331B024CEA002043EA1063B3FB76
:101D6000F2FC02FB1C331B024CEA002043EA106326
:101D7000B3FBF2FC02FB1C324CEA0020002370474C
:101D8000012000F0C1B8000070B44FF0004591EAA6
:101D9000030F7FF557AC6B40841A71EB030604D236
:101DA0006E40001BB141121973414FF4001C1CEB33
:101DB000410F34BF7CEB430683E00C0DA4EB1356BC
:101DC000362E00F37C80012E45EAC32341DC43EA32
:101DD000525312BFD20292025B08240545EAC12188
:101DE00041EA5051D2EBC020994125D407D1B0FA35
:101DF00080F610FA06F162D00020203608E0B1FA31
:101E000081F6B140C6F1200220FA02F21143B0403F
:101E10004FEAF474B4EB465434F001064FEA74040C
:101E20000AD8D6F50016760D04F00044F04061FAA9
:101E300006F25040F1404840C00A40EA415021F0CB
:101E4000004128BF5FEA500550F1000044EBD1216A
:101E500035E0DB0A45EAC121C90AB6F120050EDDED
:101E600042EA0242120CC5F1200603FA06F6EB40E4
:101E700042EA06056D42984161F100010DE062FA07
:101E800006F5F240554063FA06FC82EA0C02F34084
:101E90005A406D42904161EB030111F4801F05D15E
:101EA000641E620502D06D004041494121F4801159
:101EB000430875F1004350F1000041EB045170BC40
:101EC00070471CEB410F15D223F0004352EA430642
:101ED0000BD04FEA4C0CBCEB410F04D80C0D661E26
:101EE000342EB7DDEBE7801A994150EA410608BF6E
:101EF0000021E4E708BF1CEB430F28BF6FF000018F
:101F0000DDE700007047000080B5AFF30080024AB3
:101F100011001820ABBEFBE72600020038B5040014
:101F200001D1012032BD00F083F818B900F07CF82F
:101F300000F0D0FB0AE00068C16841F00101C16017
:101F4000026842F0010202600020704702206870BF
:101F5000211D206800F0FBF901206870002032BDCF
:101F600003D1416C41F400414164016841F0010139
:101F70000160002010BD38B5040001D1012032BD40
:101F800000F056F818B900F04FF800F02FFCDDE72C
:101F900010B500F007F800F032F81CBFDFF8982009
:101FA0009042DDE704460122206800F0F8BA38B517
:101FB00000F020F800F02DF81CBFDFF87C50A8429C
:101FC00000F022F806D1036A134204BF036A0B42F1
:101FD00000F024F82068036A134204BF026A0A4230
:101FE00003D10168490849000160012084F83D00DF
:101FF000002032BD04460022206800F0D0BA2068DC
:10200000DFF838108842704740F2444141F2111223
:1020100070472068DFF824309842704703D1436C42
:1020200023F4004343647047002129702046704721
:1020300004F13C056878704700340140002C0140F1
:1020400010B50446206801698A0715D5C1688A075A
:1020500012D56FF00201016101222277806910F030
:10206000030F204602D000F0C2FB03E000F0C0FBEB
:1020700000F087F800202077206801694A0715D50D
:10208000C1684A0712D56FF004010161022222776C
:10209000806910F4407F204602D000F0A8FB03E0E6
:1020A00000F0A6FB00F06DF80020207720680169A1
:1020B0000A0715D5C1680A0712D56FF0080101613A
:1020C00004222277C06910F0030F204602D000F0EE
:1020D0008EFB03E000F08CFB00F053F8002020772B
:1020E00020680169CA0615D5C168CA0612D56FF005
:1020F0001001016108222277C06910F4407F204658
:1021000002D000F074FB03E000F072FB00F039F83D
:102110000020207720680169CA0708D5C168CA076E
:1021200005D56FF001010161204600F0CDFC20686B
:1021300001690A0608D5C1680A0605D56FF0800155
:102140000161204600F0EFFC206801694A0608D5CD
:10215000C1684A0605D56FF040010161204600F0D4
:10216000E3FC206801698A060AD5C1688A0607D59A
:102170006FF0200101612046BDE8104000F0D5BCA1
:1021800010BD204600F0D2BC70B500F063F801D15C
:10219000022070BD00F065F832B1042A17D0082A79
:1021A00028D00C2A39D04AE03068294600F009F9D5
:1021B0003068816941F0080100F048F821F004011D
:1021C000816131688A69286902438A6137E0306831
:1021D000294600F022F93068816941F4006100F07D
:1021E00035F821F4806100F031F82A6941EA0221D2
:1021F000816124E03068294600F03FF93068C16908
:1022000041F0080100F01EF821F00401C1613168BD
:10221000CA6928690243CA6111E03068294600F0A2
:102220005BF93068C16941F4006100F00BF821F4FA
:10223000806100F007F82A6941EA0221C16100F0DB
:1022400015F870BDC1613068C1697047816130683F
:1022500081697047064606F13C040D462078012846
:10226000704701202070022161707047012060706A
:10227000002121700020704738B500F05CF801D1D2
:10228000022032BD0120207002226270DFF890022D
:102290002A689368034093600A68002A37D0102A9E
:1022A00037D0202A37D0302A37D0402A2BD0502A96
:1022B0001ED0602A20D0702A0BD0B2F5805F03D0E8
:1022C000B2F5005F0CD02CE028688168C908C9000D
:1022D0000CE000F02BF82868816841F0770105E0F8
:1022E00000F024F82868816841F48041816018E09A
:1022F00000F018F8502111E0CA684968286800F019
:102300002AF960210AE000F00DF8402106E00021E2
:1023100004E0102102E0202100E03021286800F0D4
:102320002CF90EE0CA684968286805E1CB684A685C
:102330008968286829E1054605F13C0420780128D0
:1023400070470120607000212170002032BDF0B57F
:10235000DFF8D0C1744F0368744C754D754E6045FD
:1023600018BFB84208D0B0F1804F18BFB04203D0B8
:10237000A84218BFA0420DD14A6823F0700313434E
:10238000604518BFB84207D0B0F1804F1CBFB042C3
:10239000A84201D0A04203D1CA6823F4407313437A
:1023A0004A6923F080031343036060458B68C3626E
:1023B0000A68826212BFB842096901630122426160
:1023C000F0BDF0B5026A574F520852000262066A29
:1023D000446885690B688A6825F0730526F0020653
:1023E0001D431643504BB84218BF984207D1CA68E4
:1023F00026F008061643B84226F0040601D098429B
:1024000005D14B698A6924F440741C431443446029
:102410008561496841630662F0BDF0B5026A414ECC
:1024200022F010020262B042056A436884690A68B9
:1024300024F4E64444EA02248A6825F0200545EAAB
:102440000215394A18BF904208D1CF6825F080059F
:1024500045EA0715B04225F0400501D0904206D16B
:102460004E698A6923F44063164343EA8603436056
:102470008461496881630562F0BDF0B5026A22F4A7
:1024800080720262056A4368C4698E680A6825F42E
:10249000007524F0730445EA06251443214E224AB0
:1024A000B04218BF904208D1CF6825F4006545EAD4
:1024B0000725B04225F4806501D0904206D14E69CF
:1024C0008A6923F44053164343EA06134360C46108
:1024D0004968C1630562F0BD70B5026A114E22F40D
:1024E00080520262B042046A4268C3690D6823F4F4
:1024F000E64343EA05238D6824F4005444EA053496
:102500001CBF094DA84204D14D6922F4804242EA21
:1025100085124260C36149680164046270BD0000B5
:102520008800FFFF002C014000340140000C0040F7
:10253000000800400004004010B5036A046A640803
:102540006400046223F00A03846924F0F00444EA7E
:10255000021484612CE010B5036A23F010030362B7
:102560008369046A23F4704343EA023324F0A0042D
:10257000836144EA0114046210BD826822F0700293
:10258000114341F007018160704710B5846824F45D
:102590007F442143114341EA0321816010BD10B5FE
:1025A000036A01248C40A343036202FA01F1036A27
:1025B0001943016210BD000010B586B01022002141
:1025C00002A800F0B4FA00F079F8814C814820604C
:1025D0004721616040F2E7300022E0608021A26084
:1025E00022616261A1612046FFF798FC08B100F00A
:1025F00099FA4FF48050029002A92046FFF73CFE62
:1026000008B100F08FFA00F05EF808B100F08AFA25
:1026100006B010BD18B58DB01022002109A800F039
:1026200086FA00F04BF81C22002102A800F07FFA85
:10263000694C6A48206040F65F1140F2E730E06084
:1026400000228020A0616160A26022612046FFF725
:1026500065FC08B100F066FA4FF48050099009A9B2
:102660002046FFF709FE08B100F05CFA2046FFF7AC
:1026700082FC08B100F056FA00F025F808B100F02D
:1026800051FA702102914FF4FA72039200210491E1
:102690000022069202A92046FFF776FD08B100F05D
:1026A00041FA082202A92046FFF76EFD08B100F0AA
:1026B00039FA204600F034F80EB010BD082200218F
:1026C000684600F034BA0021009101912046694625
:1026D00000F038BA80B500683E4A4149904212D1B4
:1026E000086840F4006008600022096801F4006195
:1026F00000910A210098192000F064FABDE8024018
:10270000192000F07CBA354A904208D1486840F060
:1027100004004860486800F004000090009801BD83
:1027200018B585B004461022002101A800F0FFF979
:1027300021682A4881421BD12948016841F02001C3
:1027400001604FF4A041006800F0200000900222D8
:1027500000982448019102920321049101A900F0FC
:1027600063FA2148016841F0E06141F48051016061
:1027700006B010BD80B5002200F004F8BDE80440AA
:1027800000210DE04FF48061164800F01EBB80B5BB
:1027900000224FF40061FFF7F7FFBDE80440082175
:1027A0000D48FFF7F5BB80B50122FFF7EBFFBDE851
:1027B0000440002108E080B501224FF40061FFF7DA
:1027C000E3FFBDE8044008210348FFF7F0BB000029
:1027D00088230020002C0140C8230020000800406E
:1027E0001810024000140140040001407047704777
:1027F0007047000080B500F00FFB00F019F800F002
:102800001DFB00F0A9FBFFF7D7FE00F03FFCFFF730
:1028100001FF00F065FC4FF47A7000F019FE00F043
:1028200036F800F029FE00F03DFE00F01BFFFEE749
:1028300000B58FB0282105A800F03CFF14216846A0
:1028400000F038FF0921059101234FF480310691F2
:1028500009930B930D91002202234FF4E01107928C
:102860000C930E9105A800F029FF022101910F2081
:102870004FF48061009000220391029204920221A1
:10288000684601F094F801F02EF90FB000BD10B5C4
:1028900000F01CFC964C00224FF48051204600F0C2
:1028A00094FA01F0A5F901F017FA2021204600F072
:1028B00086FA00B101208F498F4C08708F48FFF7CE
:1028C0003AFB00212046FFF772FB08212046FFF764
:1028D0006EFB0A228A49002001F0E0FA894800686C
:1028E000C16841F01001C16010BD80B5FFF763FF02
:1028F000FFF759FFBDE8084019E080B5002200F05D
:1029000004F881480121017001BD4FF400617F4846
:1029100000F05BBA80B50122FFF7F7FF7A4800218B
:10292000017001BD002203E00000000000BF012291
:102930004FF4E061754800F048BA80B5FFF71AFF20
:10294000FFF725FF724A7348137B0A214B4303604C
:10295000527B5143816001BD80B5FFF7E7FF4FF423
:102960007A7000F09BFEFFF7DDFF4FF4967000F0E9
:1029700095FE00F017F800F015F800F013F84FF48A
:10298000FA7000F08BFE802200F00DF8802200F03B
:102990000AF8802200F007F8BDE802404FF4FA7010
:1029A00000F07CBE012200215C2001F087BA10B546
:1029B000574C207E012840F0808021785A2904BF9E
:1029C0006078A52877D1207910280ED16079012868
:1029D00003D10021A07661766DE0022805D10020A8
:1029E000A076FFF782FFFFF795FFA07E012862D156
:1029F000207910280FD16079032818D1207A012876
:102A000008BFFFF79AFF207A002854D1FFF7D3FEC2
:102A1000FFF7C9FE4FE011284DD162793D480A21E8
:102A2000012A2AD1E27951430160227343E004284C
:102A30000AD1207A012808BFFFF774FF207A002806
:102A400039D1FFF773FF36E0052834D1207A012809
:102A500008BFFFF752FF207A18B9FFF75BFF00208D
:102A60006076207A022826D10121617600224FF477
:102A70000061294800F0A9F91DE0022A04D1E27999
:102A800051438160627316E0032A02D1E079E0735A
:102A900011E0042A02D1E07920740CE0052A06D165
:102AA000E079A0730821194800F093F903E0062AA1
:102AB00008BFFFF751FF002020762146BDE81040F7
:102AC0000922104801F0D6BA10B50446134920680F
:102AD000884208BF01F070FD20681149884205D185
:102AE00001F012F9BDE8104000F0AFBB10BD0000CE
:102AF0000010014024000020C8230020882300206B
:102B0000EC240020082400202300002000180140AD
:102B1000E02400203408004000140140000400407C
:102B2000002C01407047704770477047704710B5E0
:102B3000044610460A460146204601F045FD20465F
:102B400010BD000030B500F13C031A78012A01D114
:102B5000022030BD01221A7002245C7002685468A1
:102B600024F070045460046865680A681543656061
:102B70000268946824F0800494600268946848684D
:102B800004439460012159700020187030BD00008A
:102B90000901020006D51F4A00F00F00104400F89A
:102BA000041C70471C4B195470471C4B19684FF696
:102BB000FF020002114000F4E06008431849084396
:102BC0001860704770B5154B1C68C4F302230124CC
:102BD000C3F10705052D2EBF0F2504FA05F56D1E5F
:102BE0001E1D072E34BF0023DB1E2940994004FA26
:102BF00003F3BDE870405B1E1A401143C8E7012291
:102C000000F01F01074BFFE78A40400943F82020EE
:102C10007047000018ED00E000E400E00CED00E07B
:102C20000000FA0500E100E02DE9F84782460020A7
:102C300086466A4A6A4BDFF8AC814FF00F090124DF
:102C40000F6804FA0EF63740B74240F0B0804C6887
:102C50003CB3012C1AD0022C1DD0032C2ED0112CE9
:102C600016D0122C1AD0604DAC421CBF5F4DAC4246
:102C700017D05F4DAC421CBF5E4DAC4211D05E4DD3
:102C8000AC421CBF5D4DAC420BD018E0C86816E0EA
:102C9000C868001D13E0C868083010E0C8680C3030
:102CA0000DE0886808B9042009E0012819BF082050
:102CB000CAF814600820CAF8106000E00020B7F5D8
:102CC000807F03D2D4464FEA8E0404E0AEF10804BC
:102CD0000AF1040CA400DCF8005009FA04F6B5432C
:102CE00000FA04F42C43CCF800404C68E4005ED5B4
:102CF000D8F8004044F00104C8F800404FEA9E0CA8
:102D0000D8F8004004F001040094009C53F82C60B3
:102D10004FEA8E0404F00C0409FA04F526EA0505CE
:102D2000374EB24508BF002618D0364EB24508BF10
:102D3000012613D0344EB24508BF02260ED0334EC2
:102D4000B24508BF032609D0314EB24508BF04265C
:102D500004D0304EB2450CBF0526062606FA04F410
:102D60002C4343F82C40FE434C68E50303D514681C
:102D70003C43146002E01568354015604C68A503BB
:102D800054684CBF3C43344054604C68E50294683E
:102D90004CBF3C43344094604C68A50203D5D468D2
:102DA0002743D76003E0D76806EA0704D4600EF132
:102DB000010EBEF10F0F7FF642AFBDE8F1878068CC
:102DC000084018BF0120C0B2704702B90904016170
:102DD0007047C2685140C160704700000004014064
:102DE00008000140181002400000111000001210ED
:102DF00000002110000022100000311000003210ED
:102E000000080140000C0140001001400014014086
:102E100000180140001C014080B50748016841F0DE
:102E2000100101600320FFF7C0FE002001F000FC4C
:102E300001F03AFC002002BD0020024078B585B0C8
:102E4000102200216846FFF772FE3448344C0168B6
:102E5000344D354E41F040010160026802F04002FD
:102E600004920499026842F004020260036803F0CD
:102E7000040304930499026842F01002026003689C
:102E800003F0100304930499026842F00802026000
:102E9000036803F0080304930499026842F02002D7
:102EA00002600022006800F0200004901C210498B9
:102EB0002046FFF78AFF01224FF42C412846FFF7F6
:102EC00084FF01224FF470612046FFF77EFF00224D
:102ED0004FF480513046FFF778FF1C2100F031F8A5
:102EE0003020002100900191029169460F48FFF7C0
:102EF0009BFE4FF42C4100F01BF82846FFF794FE90
:102F00004FF4706100F01DF84FF4805100F010F89C
:102F10003046FFF789FE06B070BD00001810024071
:102F2000001801400014014000100140000C014055
:102F3000009101220192002102910222039269462E
:102F40007047009101220192002102910222039216
:102F500069462046FFF768BE80B50E48016841F01B
:102F6000010101600022006800F0010000900521CD
:102F700000981020FFF726FE1020FFF740FE0022E9
:102F800005211120FFF71EFEBDE802401120FFF7CA
:102F900036BE00BF141002400E2000BF401E0028A5
:102FA000FBD1704710B500F060F80122402100F01D
:102FB0005FF8FFF7F1FF002280215CE010B5414C83
:102FC000002200F054F8012243E070B504460025C9
:102FD0003C4E23064CBF0122002280213046FFF7E1
:102FE000F4FEFFF7D9FF00F015F8FFF7D5FF002238
:102FF00000F011F8E8B2072804D101228021304600
:10300000FFF7E3FEFFF7C8FF6D1C6400E8B2082875
:10301000DFDB70BD012240213046FFF7D6BE38B558
:1030200000F023F8FFF7B8FF0122402100F020F85C
:10303000FFF7B2FF80212046FFF7C1FE050018BF51
:1030400001250022402100F013F8FFF7A5FF2846D4
:1030500032BD402100F00CF8FFF79EFF2046BDE88E
:10306000104001228021FFF7B0BE164C01228021C2
:103070002046FFF7AABEFFF7FBFFFFF78DFF0022F8
:103080004021FFF7F5FFBDE8104085E700B50E4889
:1030900085B0016841F008010160C021006800F0BE
:1030A0000800009011220098064801910292012127
:1030B000049101A9FFF7B8FDFFF780FF05B000BD3F
:1030C00000000000000C01401810024080B5DFF83D
:1030D0001803DFF8181300F00DF800B118E001BD77
:1030E00080B5DFF80C03DFF80C1300F003F800B133
:1030F0000EE001BD01604FF4E13200230C2142607B
:103100008360C360036141618361C36100F01EBFDE
:10311000BDE80140FFF706BD78B585B004466846B6
:10312000002100220023002580E82E002168AF4AFC
:10313000B14DB248914250D10168B14E41F4804145
:1031400001600323026802F48042049200F06EF8EA
:103150004FF4007100F070F8039369462846FFF7BA
:1031600063FD00214FF48062019102910092694653
:103170002846FFF759FDA34D05F1140030600021EA
:103180008020F0607160B16031617161B161F161A5
:10319000304601F0AFFA08B1FFF7C4FC102000215F
:1031A0006663B064F164802030657165B165F16576
:1031B00031667462756406F1440001F09BFA08B14F
:1031C000FFF7B0FC06F144002063B466002205213D
:1031D0002520FFF7F7FC252024E0864A914223D1E1
:1031E000416841F400314160416801F400310491CB
:1031F00000F01CF8042100F01FF803210391284679
:103200006946FFF711FD082000210090019102910D
:1032100028466946FFF708FD002205212620FFF712
:10322000D1FC2620FFF7EBFC06B070BD04990268C4
:1032300042F0040202607047006800F0040004904D
:10324000022204980091019270476F48827D417D6F
:10325000012A08D1491CCAB20123142A03750ADBCA
:103260000021817507E0027D012A04D10023037645
:1032700003750123C3754175704700002DE9704F38
:10328000614EF07D012840F0868030780021F17594
:10329000AA2804BFF079552877D17478B078DFF880
:1032A0006C81DFF86C9140EA0420FEF7B1F900F080
:1032B0008CF800F082F804460D4603D800F073F84D
:1032C00004460D46D6E908AB00F071F800F079F835
:1032D00004D900F062F800F074F806D822462B46B4
:1032E0004FA001F01BFCC6E90845F178307940EAAF
:1032F0000120FEF78DF900F068F800F05EF8044652
:103300000D4603D800F04FF804460D46D6E90AAB47
:1033100000F04DF800F055F804D900F03EF800F048
:1033200050F806D822462B4641A001F0F7FBC6E92B
:103330000A457179B07940EA0120FEF769F900F099
:1033400044F800F03AF804460D4603D800F02BF894
:1033500004460D46D6E90C892046294642464B468E
:10336000FEF768F900F02DF808D940464946224694
:103370002B46FEF75FF900F024F806D822462B46CC
:103380002FA001F0CBFBC6E90C451421304600F01C
:1033900091F900203076BDE8708F5046594622469C
:1033A0002B46FEF747B942464B46FEF7EDBC20469A
:1033B000294652465B46FEF73DB90122154BFEF702
:1033C00053B80122144BFEF74FB80022134BFEF7FF
:1033D000A3B901B54FF6FF7301226946044800F016
:1033E000F0FD009802BD00000824002000380140D4
:1033F000482400200044004000080140181002400A
:103400007022002044000240A82400207B14AE4714
:10341000E17A84C0008066400000F03F000059401F
:10342000BABDCFF2BDC7A3BA25660D0A00000000E1
:10343000B8A9D1F6BDC7A3BA25660D0A00000000E1
:10344000BAE1B9F6BDC7A3BA25660D0A00000000AF
:1034500038B5044601F076FB14F1010F054602D0A1
:1034600004490878041901F06DFB401BA042FAD30F
:1034700031BD00BF0C00002080B508480849032278
:1034800040F2E24301604260836001F061FB18B1E9
:10349000BDE80140FFF746BB01BD00BFFC24002092
:1034A0000030004010B500BF4BA0464CD0E90023CF
:1034B000A0B00021CDE90023684600F0F6F8A06135
:1034C00014221BA846A1FDF773FF00211BA800F0E2
:1034D000CEF82060142216A846A1FDF769FF00214E
:1034E00016A800F0C4F86060142211A846A1FDF7E8
:1034F0005FFF002111A800F0BAF8A06014220CA808
:1035000046A1FDF755FF00210CA800F0B0F8E060DF
:10351000142207A846A1FDF74BFF002107A800F0E1
:10352000A6F82061142202A846A1FDF741FF002160
:1035300002A800F09CF8606120B010BD80B5642046
:1035400000F0ACF804212048FFF743FC642000F0B1
:10355000A5F8F4E780B500F01CF800F044FCFAE7A9
:1035600010B51A4C00F015F8204601F013FBF9E7EE
:1035700080B500F0C0FCC82000F090F8F9E780B5F5
:103580004FF47A7000F08AF800F003F8FFF70FFAB2
:10359000FAE7012000F082B810B50D480D4C006824
:1035A000C16841F02001C1602088401C208080B2A9
:1035B0003228A4BF00202080FFF760FEFFF7E9FF5C
:1035C000F2E700008824002000180140FC240020BD
:1035D00048240020102500201000000002000000F8
:1035E000DC5800083D350008000000000000000025
:1035F000800000009C5800085535000801000000BC
:103600000000000080000000AC5800086135000890
:10361000FDFF00000000000080000000E8580008E6
:1036200071350008FDFF0000000000008000000070
:10363000BC5800087F350008FDFF000000000000B6
:1036400080000000F458000899350008FDFF0000D4
:10365000000000008000000001460020842918BFFF
:10366000C81C704780B501F05EFB002002BD3EB56E
:1036700004460D46B4F90800FFF7EEFF02A90191D8
:1036800000902B4622692168606892B201F088FAA6
:10369000012801D000203EBD02983EBD80B500B992
:1036A000012001F01BFB002002BD416800680022E0
:1036B00001F052BD002201F07FBD00002DE9F8436A
:1036C0000746DFF8D8543878C1074DD5686800F050
:1036D0000C00042807D0686800F00C0008280AD104
:1036E0006868C10307D5286881033DD5786800283C
:1036F0003AD1012055E17868B0F5803F04D12868BF
:1037000040F48030286014E008B928680AE0B0F579
:10371000A02F286806D140F480202860296841F451
:10372000803105E020F480302860296821F4802170
:103730002960786860B101F005FA044628688103C1
:1037400012D401F0FFF9001B6528F7D3032028E10C
:1037500001F0F8F904462868810305D501F0F2F973
:10376000001B6528F7D3F1E73878DFF83C64810760
:1037700018D5686810F00C0F07D0686800F00C00CE
:10378000082825D16868C10322D42868810702D59A
:1037900038690128ADD12968786921F0F80141EA3A
:1037A000C00129603978080746D5B869DFF8FC13ED
:1037B00000286CD001220A6001F0C4F90446686A4E
:1037C00081072AD401F0BEF9001B0228F7D9BDE712
:1037D0003869A8B10121316001F0B4F904462868C4
:1037E000810705D401F0AEF9001B0228F7D9ADE737
:1037F0002868796920F0F80040EAC1002860D1E724
:10380000306001F09FF9044629688807CAD501F0A5
:1038100099F9001B0228F7D998E7DFF884030168BB
:10382000C9084FF47A72B1FBF2F2009200BF00981F
:10383000411E00280091F9D1387841076ED5E8691A
:103840000024C10009D4E86940F08050E8610124F7
:10385000E86900F0805000900098DFF85483D8F8B1
:103860000000C10520D4D8F8000040F48070C8F8EA
:10387000000001F067F98146D8F80000C10513D4B3
:1038800001F060F9A0EB09006528F5D35EE7086058
:1038900001F058F90446686A8107CDD501F052F964
:1038A000001B0228F7D951E7F868012808D008B9A9
:1038B000286A09E00528286A06D140F00400286239
:1038C000286A40F0010005E0400840002862286AAC
:1038D00020F00400286241F28938F86860B101F0F4
:1038E00031F98146286A810713D401F02BF9A0EB46
:1038F00009004045F6D329E701F024F98146286AFA
:10390000810706D501F01EF9A0EB09004045F6D36A
:103910001CE71CB1E86920F08050E861F8690028D4
:103920003ED0696801F00C0108293FF4E2AE02289C
:103930002AD100F038F804462868810105D501F045
:1039400001F9001B0228F7D900E7386AB0F5803F7B
:1039500005D16968B86821F40031014369606A687B
:10396000386A796A22F4741202430A436A600120B9
:1039700000F01AF804462868810111D401F0E2F839
:10398000001B0228F7D9E1E600F00DF8044628688C
:10399000810105D501F0D6F8001B0228F7D9D5E63C
:1039A0000020BDE8F2830020306601F0CBB82DE99D
:1039B000F843804F05463868894600F007004845BF
:1039C00002D200F086F85FD12868744C810712D5C6
:1039D000400703D5616841F4E06161602878010720
:1039E00003D5606840F4605060606168A86821F0A9
:1039F000F001014361602978C8073DD56868012856
:103A000002D121688A0303E00228216802D18A01D9
:103A100002D439E08A0737D56168890840EA810015
:103A2000606041F2893801F08DF806466868012827
:103A30000BD1606800F00C0004281DD001F082F862
:103A4000801B4045F5D3032041E002280AD160687D
:103A500000F00C0008280FD001F074F8801B4045DE
:103A6000F5D3F0E7606810F00C0F05D001F06AF8AC
:103A7000801B4045F6D3E6E7386800F00700814533
:103A800004D200F026F801D0012020E02878410778
:103A900005D56268E86822F4E06202436260297832
:103AA000080706D56168286921F4605141EAC00120
:103AB000616000F01DF862683F49394BC2F30312A0
:103AC000895CC8401860002000F0B2FD0020BDE80D
:103AD000F2833968C90849EAC1013960386800F0E1
:103AE00007004845704736490120086070470000CC
:103AF00032492C480A6802F00C03082B00D07047AA
:103B000010B500BF32A4C2F38343D203E35C08D5EF
:103B10000968584332A3C1F340415A5CB0FBF2F04C
:103B200010BD18462749484310BD1D48234A006868
:103B300013682549C3F3022206E019481F4A0068AA
:103B400013682149C3F3C222895CC840704710B58D
:103B50000F220260194A136803F0030343601468DC
:103B600004F0F0048460136803F4E063C360126837
:103B7000D20802F4E06202610E48026802F0070215
:103B80000A6010BD10B5114C2068010603D500F085
:103B900028F88020A07010BD000000000010024036
:103BA0001800002000127A000000424280044242C5
:103BB0000070004000200240F0570008041002404E
:103BC0004C00424200093D000C5900080810024018
:103BD00002030405060708090A0B0C0D0E0F10104E
:103BE0000102704700E0401E81B20029FBD17047FE
:103BF00080B53748016841F010010160006800F0AD
:103C000010000090009800F014F801224FF4805149
:103C10003048FFF7DAF800F01AF8BDE801402DE06F
:103C2000F8B54FF4805000210090019101220292DA
:103C300007E0F8B54FF48050012100900191032274
:103C4000039269462348FEF7EFFF05B000BD10B5AB
:103C5000FFF7EFFF1F4C002200F00BF840F2EE20C0
:103C6000FFF7C0FF012200F004F8BDE810400F206C
:103C7000B8E74FF480512046FFF7A7B870B5FFF7BB
:103C8000CFFF0024134D03E00120FFF7ABFF641CBE
:103C900000F018F8E6B208B1642EF5DB642E0DDAF8
:103CA000002403E00120FFF79DFF641C00F00AF8E8
:103CB000E6B208B9F02EF5DBF02E01DB012070BD75
:103CC000002070BD4FF480512846FFF778B80000FF
:103CD000181002400010014000B5674885B0016827
:103CE00041F0100101603021006800F010000090E8
:103CF000002200986148019102920121039101A9DB
:103D0000FEF792FF05B000BDF8B55C4F20213846A4
:103D1000FFF755F801285A4C5A4E40F2F51516D1C6
:103D20000020B0700021F078318230BBF089401C57
:103D3000F08180B2A84220DBF18102200121F170E4
:103D4000317230710F23092206F1300112E0B07890
:103D500098B9F0810021308AF170401C308280B225
:103D6000A8420ADB31820F230121B170317109228F
:103D700006F13C01204600F024F910213846FFF7F7
:103D80001EF8012815D10020307000217078B18113
:103D900040BB7089401C708180B2A84222DB7181D7
:103DA00002200121717070710F23092206F11801A0
:103DB00012E03078B0B970810021B0897170401C78
:103DC000B08180B2A8420DDBB1810F230121317097
:103DD0007171092206F12401204601B0BDE8F040CE
:103DE00000F0EFB8F1BD28490878002800D07047EE
:103DF00038B5244C207A012831D1E079234D0128AF
:103E000003D100F045F80022E2712079012815D194
:103E1000608A401C81B2B1F57A7F03DBA18A491C1C
:103E20000020A1826082A08A792807DB0021A1827C
:103E3000002200F02EF80120A07102E0A0790128F4
:103E40000DD1E08A401CE08241F2893180B2884283
:103E500005DB0020E082A082A07100F019F86079F3
:103E6000012802D10021217201E0207A18B9BDE8B1
:103E70003140FEF73ABD31BD18100240001001403C
:103E8000082400201C000020F92400200014014018
:103E900001224FF400612846FEF797BF10B50023BA
:103EA00009E000EB430404F1006404F57E34248847
:103EB00021F813405B1C9342F3DB10BD70B5044640
:103EC0000D461646FFF76EF804F0FE00FFF77DF88A
:103ED000FFF7A5F858B92D07280EFFF776F8FFF77A
:103EE0009EF820B93046FFF770F8FFF798F8BDE864
:103EF0007040FFF763B838B5124C134DE2782B7859
:103F0000934205D000215C20FFF7D8FFE0782870AD
:103F100022796878904205D000215E20FFF7CEFF1D
:103F200020796870A278A87890420AD000215C209D
:103F3000FFF7C4FFA27800215E20FFF7BFFFA07843
:103F4000A87031BDEC2400200C25002038B50400F9
:103F500001D1012032BD00F021F808B900F022F8AB
:103F600000F012F800F023F8FFE7416100F001F8DB
:103F700032BD2068C16841F40051C1600020686012
:103F800020216970A9707047242068702068C1687A
:103F900021F40051C160204600F097BA04F13805C1
:103FA00068787047002129702046FFF7B5B820686F
:103FB000016921F4904101612068416921F02A01E1
:103FC00070472DE9F843054605F138070C46787827
:103FD00020281646984646D1002C14BF002E0120FA
:103FE00042D0387801283ED0012139700020786015
:103FF00021227A7000F0A6FDAE848146EE8403E0B3
:10400000296814F8010B4860E88CE0B1E88C411E87
:10401000E9844B46A868CDF80080B0F5805F0DD1EB
:1040200000F024F8B8B920882968C0F30800486077
:104030002869002814BF641CA41CE5E700F016F8EA
:104040000028DDD007E0CDF800804B46002240215B
:1040500000F00EF808B1032006E02020787000215F
:104060003970002000E00220BDE8F28300228021A8
:10407000284692E17CB5044604F138051346A87839
:1040800020283ED109B1180001D1012076BD287841
:10409000012836D001202870A162A38500226A6021
:1040A0002220A8700026606B0FF265228262606B8E
:1040B0000FF29522C262606B0FF2952202630A46EC
:1040C000606B46632668606B311D00F053FB002077
:1040D000009021680A68009200224B6800930098C3
:1040E0002A70CB6843F48073CB602068416941F04B
:1040F000010141612068416941F0400141610020B6
:1041000076BD022076BD38B500F13802117801295C
:1041100001D1022032BD012111705378212B04D12D
:1041200001684B6943F080034B619178222915D1D6
:104130000023009303681C6800945D680095009953
:10414000DC6844F48074DC6001684B6943F001036F
:104150004B610068416941F04001416100201070ED
:1041600032BD38B5044604F13905206841692A7822
:10417000212A0CD109060AD5426922F08002426147
:10418000206B08B100F030FB204600F038F92068C1
:1041900041696A78222A0CD149060AD5426922F07F
:1041A00040024261606B08B100F01EFB204600F047
:1041B0002FF9002032BD416921F040014161606B5F
:1041C000704738B5044625682968EA686B6911F0BC
:1041D0000F0007D188065DD593065BD52046BDE864
:1041E000324029E1D80702D412F4907F52D0C80798
:1041F00005D5D50503D5E06B40F00100E063480725
:1042000005D5DD0703D5E06B40F00200E0638807C9
:1042100005D5DD0703D5E06B40F00400E063080737
:1042200005D5DB0703D5E06B40F00800E063E06BE9
:1042300000286CD0880604D5910644BF204600F0C3
:10424000FBF820684069E16B0A0701D440061BD5E2
:10425000204600F0DDF8206841694A060FD5FFF7D7
:10426000AAFF60B10FF2C5114163606B00F0D5FA8F
:1042700000284CD0606B416BBDE8344008472046B5
:10428000BDE8324000F0B1BF204600F0AEFF002094
:10429000E06331BD08062AD5130628D594F8390005
:1042A000212834D1A068B0F5805F206A0BD1018845
:1042B000C1F30801696020690028206A0CBF811CD5
:1042C000411C216203E0411C216200786860E08C9F
:1042D000401EE08480B2D0B92068C16821F080011E
:1042E000C1602068C16841F04001C16031BD48062D
:1042F0000DD551060BD5E86820F04000E86020217C
:1043000084F839102046BDE8324000F06FBF31BD5F
:10431000416A00680268930613D40020C8850868C3
:10432000C26822F48072C260086842695208520072
:1043300042610868426922F040024261202081F80F
:104340003A00084600F053BF406A00F051BF000039
:1043500038B5446A2068406904F139052978212973
:1043600006D1010604D50022E284204600F047F879
:10437000216848696978222906D1400604D50021C0
:10438000E185204600F044F8E06B40F01000E06367
:104390002046BDE8324000F028BF2DE9F041069CE0
:1043A00005460E4690461F46286801683140B142D6
:1043B0000CBF01200020404517D114F1010FF3D0AC
:1043C00024B100F0BFFBC01B8442EDD22868C16855
:1043D00021F4D07100F00CF805F138002021417073
:1043E000817000210170032000E00020BDE8F08111
:1043F000C160286841694908490041617047016806
:10440000CA6822F0C002CA60202180F839107047C3
:104410000168CA6822F49072CA6001684A69520849
:1044200052004A61202180F83A107047406A00210A
:10443000C185C18400F0D9BE80B590F83A10222918
:1044400041D18168B1F5805F12D101690368826A48
:104450000029596805D1C1F308011180826A911CB5
:1044600004E001F0FF011180826A511C81620FE0BB
:1044700001690029816A04D14A1C826203685A6872
:1044800005E04A1C826203685A6802F07F020A70E3
:10449000C18D491EC18589B299B90168CA6822F0E7
:1044A0002002CA600168CA6822F48072CA6001688A
:1044B0004A69520852004A61202180F83A1000F0FF
:1044C00096FE002002BD022002BD2DE9F047044601
:1044D000642522681169E06821F4405101431161AB
:1044E0001926D3683249A0680B40216903436069EB
:1044F0000B430343D3605169A06921F44071014328
:104500002C48516182420ED1FFF717FB0746FFF797
:1045100014FB8046FFF711FB8146FFF70EFB824636
:10452000FFF70BFB0DE0FFF700FB0746FFF7FDFA77
:104530008046FFF7FAFA8146FFF7F7FA8246FFF75F
:10454000F4FA616889007743B7FBF1F36422B3FBA7
:10455000F2F206FB08F3B3FBF1F706FB09F3B3FB3A
:10456000F1FCAE46BCFBFEFE05FB1E773F01323779
:104570006423B7FBF3F303F0F00303EB021306FB32
:104580000AF74643B7FBF1F2B6FBF1F06421B0FB4A
:10459000F1F105FB11252D0132356420B5FBF0F05A
:1045A000216800F00F00C3188B60BDE8F0870000A1
:1045B000F3E9FFFF0038014002494A680878821891
:1045C0004A6070470C00002062F30F2262F31F4222
:1045D000401810F0030308D0C91A1FD3DB0748BFE7
:1045E00000F8012D28BF20F8022D130030B4144626
:1045F0001546103928BF20E93C00FAD8490728BFE2
:1046000020E90C0048BF40F8042D890028BF20F89D
:10461000022D48BF00F8012D30BC7047C91818BFE3
:1046200000F8012DCB0728BF00F8012D70470000CE
:1046300018B5014687B000221D20FEF7C3FA1D20E1
:10464000FEF7DDFA1448154C016841F002010160E3
:1046500001A9006800F002000090009802A8FFF78E
:1046600076FAFFF762FA0E49216040F2E732400025
:104670000C49E260B0FBF1F0401E60600022226154
:10468000A2602046FDF74AFC18B92046FDF753FC0E
:1046900000E0012008B010BD1C100240482300209B
:1046A0000004004040420F0080B51048016841F00E
:1046B00001010160026802F0010200920099426863
:1046C00042F0805242600022406800F0805000902A
:1046D0000F2100986FF00100FEF774FA044801689A
:1046E00021F0E06141F00071016001BD181002404D
:1046F0000400014070B508B9012070BD0368DFF8FF
:10470000B453AB4200F138040BD2DFF8AC13CA1833
:104710001426B2FBF6F29200DFF8A053A2606560A7
:104720000AE0DFF89C13CA181425B2FBF5F29200D8
:10473000DFF89013A2606160022280F821201D68DA
:10474000416882686FF30D150D43C1681543026916
:104750000D434169154382690D43C16915430D43FA
:104760001D6000232360012280F8212080F8203082
:10477000002070BDF8B50446002594F820000128FB
:1047800001D10220F2BD94F821600120012E84F8AD
:10479000200024D1022004F12C0684F82100F560C9
:1047A000206807687F087F000760204600F0A4F9B2
:1047B0002168306820B10A6842F00E020A6008E001
:1047C000086820F0040008602068016841F00A01D0
:1047D00001602068016841F00101016002E084F895
:1047E000205002252846F2BD10B501680A6822F063
:1047F0000E020A6000F13C020B685B085B000B6074
:104800000124516812688C4054600123002180F813
:10481000213080F82010002010BDF8B590F821203C
:104820000024022A00F1340103D00420486001244E
:104830005FE00268DFF89062136823F00E031360F4
:104840004FF48077026815686D086D0015604FF4AD
:1048500080320368B3424FF4805519D9DFF85462AF
:10486000B34208BF012210D0DFF86062B34208BF34
:1048700010220AD0DFF85862B34208BF3A4604D08B
:10488000DFF85072BB4208BF2A46DFF84C3227E0FF
:10489000DFF848C263451CD0DFF844E273451AD004
:1048A000DFF840C2634518D0DFF83C72BB420EBF50
:1048B0002A46DFF83852AB4210D0DFF83472BB42E0
:1048C00008BF4FF4801209D0B34207D14FF0807275
:1048D00004E0012202E0102200E03A46DFF8143240
:1048E0001A60012280F8212080F82040096801B177
:1048F00088472046F2BD2DE9F84F00F12802042731
:104900005169714E0B680468DFF8D0B12568916970
:10491000DFF8C4C1DFF8BCE1DFF8B481DFF8AC91A7
:10492000DFF890A18DF800109DF800108F403B42F9
:104930004AD0690748D52368990603D4236823F031
:10494000040323604FF480230168B1424FF4804494
:104950004FF4806511D9514508BF04230AD0494559
:1049600008BF402306D0414508BF2B4602D0714501
:1049700008BF2346CCF8003020E0594517D0584FE7
:10498000B94216D0574FB94215D0574DA9420EBF64
:104990002346564CA1420FD0554DA94208BF4FF4B3
:1049A000800309D0B14207D14FF0806304E00423B3
:1049B00002E0402300E02B464E490B60516800297D
:1049C00075D0BDE8F44F08479DF8001002278F40CE
:1049D0003B424FD0A9074DD52368990606D42368DA
:1049E00023F00A032360012180F821104FF40033E3
:1049F0000168B1424FF400544FF4007511D951458C
:104A000008BF02230AD0494508BF202306D04145EC
:104A100008BF2B4602D0714508BF2346CCF80030B2
:104A200020E0594517D02E4FB94216D02D4FB9422C
:104A300015D02D4DA9420EBF23462C4CA1420FD0BC
:104A40002B4DA94208BF4FF4001309D0B14207D142
:104A50004FF0007304E0022302E0202300E02B4625
:104A600024490B60002380F820301168F9B1BDE8BB
:104A7000F44F08479DF8001008268E40334216D0A8
:104A8000290714D5236823F00E03236001249169BC
:104A900053698C405C600121116180F82110002174
:104AA00080F82010916811B1BDE8F44F0847BDE8C7
:104AB000F18F000008040240F8FFFDBF0000024033
:104AC000F8FBFDBF00040240800002401C040240CD
:104AD0003004024044040240040402400800024042
:104AE0001C000240300002404400024058000240D6
:104AF0006C0002400400024070B5046CC66B0125D6
:104B0000A5407560046863604068102802D1A26007
:104B1000E16070BDA160E26070BD00000EB4C0B580
:104B2000024603A800210190009101AB0121044835
:104B300078440C30FBF7FCFA06BC5DF810FB00BFB4
:104B40003B0D000001484068704700BF0C0000208A
:104B500038B5040001D1012032BD20684CF6CC41AB
:104B6000016045F25552026063684360A16881604C
:104B7000FFF7E8FF05462168C86830B1FFF7E2FF9C
:104B8000401B3128F7D3032032BD4AF6AA20086023
:104B9000002032BD00684AF6AA210160002070475B
:104BA0002DE9F047804614460D469A46A00000F0D5
:104BB00021FB070070D0542000F01CFB002868D0B7
:104BC00007EB8402111F089E0763C9084FEAC10959
:104BD00009F0070104466A5C631883F83420685CB6
:104BE00010B1491C1029F6D3002084F84300062E8A
:104BF000099D88BF062604F14407E6623E6078609E
:104C0000C6F10706201D00F0DCFB04F1180000F0DF
:104C1000D8FB2461A66164620020B86038735246F4
:104C20004146484600F008FC206005B12C6000F0C9
:104C300053FCDFF82854DFF828A4E86C401CE86433
:104C40001427A86A60BBAC62E86C01282ED100264C
:104C500007FB06F0504400F0A7FB761C062EF7D9A0
:104C600005F1740000F0A0FB05F18806304600F065
:104C70009BFB284600F098FB05F1140000F094FB24
:104C800005F1380000F090FB05F17400E8622E6336
:104C90000CE0384600F037FB4FF0FF30BDE8F087FE
:104CA000A86D18B900F035F828BFAC62A86E401C9A
:104CB000A8660122E06A696D82401143696507FBBD
:104CC00000F2211D0AEB020000F07EFB00F01DFC4B
:104CD000A86D08B100F0B3F90120DFE780B588B115
:104CE000DFF87823116F21B100F00FF800F029F9F7
:104CF000FEE7116F491C1167002100F0B3F900F0C5
:104D000042F808B900F018F901BD502080F311886D
:104D10007047E06AA96ACA6A90427047211D142050
:104D20004243981870473EB5DFF8A0430FF2A83110
:104D300004F19C00019000250095002380220FF2D1
:104D40007120FFF72DFF502101280ED181F311882A
:104D500000F0F7F84FF0FF30E0660121A16525650E
:104D6000BDE8374000F086BB37BD10F1010FFBD125
:104D700081F3118800F0E5F8FEE7DFF85003016FDA
:104D8000491C0167704770B5DFF8D062306F0024AE
:104D9000002528B9502181F3118800F0D2F8FEE7F0
:104DA00000F09AFB306F401E3067306F002836D11C
:104DB000F06CD8B933E0F068C46800F031F800F066
:104DC000F1F8E06A716DDFF8083301228240114387
:104DD000716514225043211D184400F0F5FAE06A71
:104DE000B16ACA6A904224BF012131663068002846
:104DF000E1D10CB100F00FF9F46D3CB100F014F802
:104E000008B101203066641EF8D1F565306E30B10E
:104E1000DFF8C0124FF08050012500F091F807E153
:104E200004F1180000F0F6BA2DE9F843DFF82C720F
:104E3000386F002600284FD13C6D641C3C6511D1B1
:104E4000F96A086828B1502181F3118800F079F8D7
:104E5000FEE7F86A396BF9623863786E401C786651
:104E600000F0D9F8F86EDFF8689284424FF0140829
:104E700028D31AE0281D00F0CDFAA86A18B105F170
:104E8000180000F0C7FAE86A796D012282401143E8
:104E9000796508FB00F0291D484400F095FAE86A9E
:104EA000B96ACA6A904228BF0126F96A086830B117
:104EB000F86AC168CD6868688442DBD201E04FF0CF
:104EC000FF30F866B86AC16A08FB01F059F80020A3
:104ED000022A04D3012602E0F86D401CF865386E02
:104EE00000B10126A8E0DFF87421106F10B1012194
:104EF0001166704710661421506DB0FA80F3C3F14B
:104F00001F034B43DFF8C811C85838B9502181F34B
:104F10001188BFF34F8FBFF36F8FFEE7C81800F102
:104F20000803416849684160994204BF496841608B
:104F30004068C16891627047DFF898114FF0805067
:104F40000860BFF34F8FBFF36F8F704738B5C068ED
:104F5000C46824B9FFF7D9FEFFF7F3FFFEE7FFF7B8
:104F60005FFFDFF8F850286F60B900F01BF8E26AC5
:104F7000686DDFF85C310121914008436865FFF7F7
:104F8000CDFE02E004F11801284600F01DFA00F001
:104F900004F800D209E0002032BDA86AC16AE06AC4
:104FA00081427047201D00F035BA0120286632BDCD
:104FB00070B5DFF8AC40294D1AE0FFF7DEFE6869F6
:104FC000461EB641FFF7DFFEF60F8EB900F084FAF9
:104FD000286AC668301D00F01DFAE86C401EE864BF
:104FE000686B401E686300F090FA304600F009F8E4
:104FF000686B0028E1D121680229F9D3FFF79CFFF3
:10500000F6E710B50446206B00F07DF92046BDE8B8
:10501000104000F078B91149CA6A106810B94FF011
:10502000FF3203E0C86AC268D0684268CA66704747
:1050300000F06BFA284670BD3046BDE8F283A86ADE
:10504000C16AE06A814207D2224A4FF08051116062
:10505000BFF34F8FBFF36F8F7047000044210020D4
:10506000E4210020F8B5194D2F6D0C46A96A0646BB
:10507000081D00F0CFF930B9A86A696DC06A012235
:1050800082409143696516F1010F08D13CB1A86ACD
:10509000011D05F13800BDE8F44000F095B9A86A9B
:1050A000F6194660BE42A86A05D2011D286BBDE80C
:1050B000F44000F096B9011DE86A00F092F9E86E3C
:1050C000864238BFEE66F1BD00000000442100209A
:1050D000E421002004ED00E049444C4500000000BC
:1050E00038B504000D4602D100F05CF8FEE700F090
:1050F000F3F9E26B206C216842438818606000215C
:10510000A1632068E26BA060521E206C21684243BC
:105110008818E0604FF0FF3104F1440001704170E5
:1051200075B92069A0B104F11000FFF70FFF78B145
:10513000DFF880104FF08050086000F02EF807E094
:1051400004F1100000F030F904F1240000F02CF913
:1051500000F0DBF9012032BD70B506000C4602D12B
:1051600000F020F8FEE7002C0EBF482004FB06F0FC
:10517000483000F03FF805000BD0002C0EBF2D602A
:1051800005F148002860EE632C6401212846FFF7F2
:10519000A7FF284670BD87F31188BFF34F8FBFF379
:1051A0006F8F7047502080F31188BFF34F8FBFF38C
:1051B0006F8F704704ED00E000B500BF1300964606
:1051C0009446103928BFA0E80C50FAD85FEA417C19
:1051D00028BF0CC048BF40F8042BC90728BF20F8DF
:1051E000022B48BF00F8012B00BD70477047704785
:1051F000704700002DE9F8430446FFF7BEFD694FF4
:10520000B8684FF00009002508BB07F1180307F143
:10521000180113F0070F4FF400500A4605D0CA1DBD
:10522000D208D200C2F50050081880180838C0080B
:10523000C0003A607D60B86045600560831A5360C5
:10524000106050683861F8604FF0004078614FF0AE
:1052500050087869044246D1002C44D0083414F038
:10526000070F1FBF04F1080004F00704041B14F02B
:10527000070F02D000F040F8FEE7A4B3F868A042A0
:1052800031D33E68394601E0314606467068A04297
:1052900002D230680028F7D1B868864223D00A6865
:1052A0003068086002F108097268121B112A0CD3D9
:1052B000311911F0070002D000F01EF8FEE7301D92
:1052C00002517460084600F048F87168F8683A695D
:1052D000401AF860904238BF3861786901437160C4
:1052E000356009F00705FFF74EFD15B100F004F831
:1052F000FEE74846BDE8F28388F31188BFF34F8F7D
:10530000BFF36F8F7047002800D1704738B5A0F108
:105310000804244D61686A695023114202D100F0EB
:1053200015F8FEE7206810B100F010F8FEE7914391
:105330006160FFF722FDE96860684118E960204676
:1053400000F00BF8BDE83140FFF71DBD83F3118875
:10535000BFF34F8FBFF36F8F704730B511490A46C7
:1053600000E01A4613688342FBD35368D418844282
:1053700003D14068C3185360104643681468C518C9
:10538000A54208D189688C4204D06168CB1843607B
:10539000246800E00C460460824218BF106030BDF3
:1053A000000000002C0100204FF0FF3200F1080146
:1053B00082604160C16000F1080202610021016069
:1053C000704700210161704710B542684A609368D8
:1053D0008B6094686160916008610168491C01609C
:1053E00010BD30B50A6812F1010F08BF036907D07C
:1053F00000F1080300E023465C682568AA42FAD25F
:105400005A684A6091608B60596008610168491C64
:10541000016030BD4368016982689A6083684268B0
:105420005A604A68824204BF83684B60002202616E
:105430000868401E08607047490810B54900A0F18F
:105440000C034FF0807459609C600FF20D011960DD
:1054500040F8202D203810BD3E494A68502012F1F6
:10546000010F80F31188BFF34F8FBFF36F8F00D010
:10547000FEE7FEE71CB538490A780192FF230B705E
:105480000C788DF800409DF80000324C00F0500080
:105490002070072005E09DF800205200401E8DF886
:1054A00000209DF800201306F5D4000200F4E0600F
:1054B000A060019808702948016841F470010160FA
:1054C000026842F07042026000F04CF80020606018
:1054D00000F08BF8002016BD502080F31188BFF338
:1054E0004F8FBFF36F8F1B494A68521C012A4A60D5
:1054F0000AD11B490A68130606D080F31188BFF34E
:105500004F8FBFF36F8FFEE770471249486838B975
:10551000502080F31188BFF34F8FBFF36F8FFEE7EA
:10552000401E486008BF80F31188704780B5502046
:1055300080F31188BFF34F8FBFF36F8FFFF774FCB9
:1055400018B107494FF080500860002282F311889B
:1055500001BD00000000002000E400E020ED00E0BC
:1055600004ED00E0054906480A684FF47A73B2FB7F
:10557000F3F35B1E436007210160704718000020B1
:1055800010E000E0EFF30980BFF36F8F1D4B1A6846
:1055900020E9F00F106008B54FF0500080F311883B
:1055A000BFF34F8FBFF36F8FFFF79DFC4FF00000ED
:1055B00080F31188BDE8084019680868B0E8F00F6A
:1055C00080F30988BFF36F8F70470E4B1968086826
:1055D000B0E8F00F80F30988BFF36F8F4FF0000041
:1055E00080F311884EF00D0E704707480068006880
:1055F00080F3088862B661B6BFF34F8FBFF36F8F39
:1056000000DF00006C21002008ED00E0FEF7BABAD0
:10561000FEE7FEE7FEE7FEE770473348FFF76BB9AA
:105620003248FFF768B93248FCF70ABD3148FCF749
:1056300007BD70B5304D2846FEF7C3FD29682F48D9
:10564000814229D10268910626D56FF020020260BE
:1056500008212B482B4CFDF7BCFB296826782A48EB
:105660004A6882550578AA2D0FD1761CF1B214290B
:1056700003DB142100F056F800262449244B267041
:105680000020087001221A7070BD002121701421C1
:10569000BDE8704000F046B870BD1CB51D4C2046FA
:1056A000FEF78FFD20681C4988421BD10A68D0068E
:1056B00018D5002200920B68009349680091009869
:1056C0002046FEF74EFD0949144A0868144940680F
:1056D000C0F10A000870012010702046BDE8164095
:1056E000FEF711BD13BD0000B4220020702200207F
:1056F0008823002048230020482400200044004044
:1057000000180140C0240020A8240020BD2400204F
:10571000BE2400200824002000380140F824002086
:10572000FB2400200022FEF753BFF0B402461068AD
:1057300095681318506803EB5004C0071CD54D44FE
:105740001AE013F8017B05F8017B491EF9D198B1E5
:1057500013F8011BC6F38106032E08BF13F8016B73
:1057600001EB06214942801C294405D011F8016B48
:1057700005F8016B401EF9D1A3420ED013F8016B5E
:1057800016F0030104BF13F8011BC91C30090F28D0
:10579000DBD113F8010B0F30D7E7F0BC02F10C009E
:1057A0007047000010B50E4A0E49106840F0010025
:1057B000106053680C480B40536014680440146038
:1057C000116821F4802111604FF41F01506820F40A
:1057D000FE00506091604FF00060044A106010BD00
:1057E000001002400000FFF8FFFFF6FE08ED00E0A9
:1057F0000000000000000000010203040607080981
:1058000010B5074979441831064C7C44163404E03D
:105810000A68081D114488470146A142F8D110BD0D
:105820000800000024000000CFB9FFFFE8230000BB
:105830002C01002000000000F3FEFFFFB00100007B
:10584000F40000000000002000F00DF8002801D056
:10585000FFF7D6FFAFF300800020AFF30080FCF726
:10586000C9FF00F002F80120704700F001B8000005
:1058700007463846FCF748FBFBE738B504460D46BB
:10588000284600F005F8A84218BF0024204632BD83
:105890000149FDF79EBD00BFE4000020576174651B
:1058A000724C6576656C5461736B0000576174636C
:1058B00068446F675461736B000000004D656E753E
:1058C00046756E6374696F6E54617300014880475A
:1058D00001480047A5570008015900086465666142
:1058E000756C745461736B0054656D7065725441CE
:1058F000534B00004D5055363035305461736B00BA
:10590000AFF30080AFF30080FFF79EFF00000000C0
:1059100001020304FFF7FEBFFFF7FEBFFFF7FEBF64
:10592000FFF7FEBFFFF7FEBFFFF7FEBFFFF7FEBFAB
:10593000FFF7FEBFFFF7FEBFFFF7FEBFFFF7FEBF9B
:10594000FFF7FEBFFFF7FEBFFFF7FEBFFFF7FEBF8B
:10595000FFF7FEBFFFF7FEBFFFF7FEBFFFF7FEBF7B
:10596000FFF7FEBFFFF7FEBFFFF7FEBFFFF7FEBF6B
:10597000FFF7FEBFFFF7FEBFFFF7FEBFFFF7FEBF5B
:10598000FFF7FEBFFFF7FEBFFFF7FEBFFFF7FEBF4B
:10599000FFF7FEBFFFF7FEBFFFF7FEBFFFF7FEBF3B
:1059A000FFF7FEBFFFF7FEBFFFF7FEBFFFF7FEBF2B
:1059B000FFF7FEBFFFF7FEBFFFF7FEBFFFF7FEBF1B
:1059C000FFF7FEBFFFF7FEBFFFF7FEBFFFF7FEBF0B
:1059D000FFF7FEBFFFF7FEBFFFF7FEBFFFF7FEBFFB
:1059E000FFF7FEBFFFF7FEBFFFF7FEBF1200011279
:1059F000AA012108430100012210083001A24A0433
:105A000014F30001000150035AA506821018510C2E
:105A1000310E310C920218420218F002079614005F
:105A2000080452FF01E356131410010000660C2114
:105A300041F003166400002000012002D512000886
:105A40002C43C3123C2101200A02040101F8220068
:105A50002048230020082104211B6108F00411289C
:065A6000010020140164A6
:040000050800590195
:00000001FF
